{
  "contractName": "LeafDataStorage",
  "abi": [
    {
      "inputs": [
        {
          "internalType": "string",
          "name": "_plantId",
          "type": "string"
        },
        {
          "internalType": "string",
          "name": "_ipfsLink",
          "type": "string"
        },
        {
          "internalType": "string[]",
          "name": "_classNames",
          "type": "string[]"
        },
        {
          "internalType": "uint256[]",
          "name": "_distributions",
          "type": "uint256[]"
        },
        {
          "internalType": "uint256",
          "name": "_date",
          "type": "uint256"
        }
      ],
      "name": "setUserLeafData",
      "outputs": [],
      "stateMutability": "nonpayable",
      "type": "function"
    },
    {
      "inputs": [],
      "name": "getUserLeafDataFull",
      "outputs": [
        {
          "components": [
            {
              "internalType": "string",
              "name": "plantId",
              "type": "string"
            },
            {
              "internalType": "string",
              "name": "ipfsLink",
              "type": "string"
            },
            {
              "internalType": "string[]",
              "name": "classNames",
              "type": "string[]"
            },
            {
              "internalType": "uint256[]",
              "name": "classDistributions",
              "type": "uint256[]"
            },
            {
              "internalType": "uint256",
              "name": "date",
              "type": "uint256"
            }
          ],
          "internalType": "struct LeafDataStorage.LeafData[]",
          "name": "",
          "type": "tuple[]"
        }
      ],
      "stateMutability": "view",
      "type": "function",
      "constant": true
    },
    {
      "inputs": [
        {
          "internalType": "uint256",
          "name": "_index",
          "type": "uint256"
        }
      ],
      "name": "getUserLeafDataAttributes",
      "outputs": [
        {
          "internalType": "string",
          "name": "",
          "type": "string"
        },
        {
          "internalType": "string",
          "name": "",
          "type": "string"
        },
        {
          "internalType": "string[]",
          "name": "",
          "type": "string[]"
        },
        {
          "internalType": "uint256[]",
          "name": "",
          "type": "uint256[]"
        },
        {
          "internalType": "uint256",
          "name": "",
          "type": "uint256"
        }
      ],
      "stateMutability": "view",
      "type": "function",
      "constant": true
    },
    {
      "inputs": [],
      "name": "getLengthUserLeafData",
      "outputs": [
        {
          "internalType": "uint256",
          "name": "",
          "type": "uint256"
        }
      ],
      "stateMutability": "view",
      "type": "function",
      "constant": true
    }
  ],
  "bytecode": "0x608060405234801561000f575f80fd5b506116408061001d5f395ff3fe608060405234801561000f575f80fd5b506004361061004a575f3560e01c8063139587211461004e57806338a5fff214610082578063752e4767146100a05780638ecd4324146100bc575b5f80fd5b610068600480360381019061006391906109a1565b6100da565b604051610079959493929190610c1f565b60405180910390f35b61008a6103c8565b6040516100979190610c8c565b60405180910390f35b6100ba60048036038101906100b59190610f73565b61040e565b005b6100c4610557565b6040516100d1919061128c565b60405180910390f35b6060806060805f805f803373ffffffffffffffffffffffffffffffffffffffff1673ffffffffffffffffffffffffffffffffffffffff1681526020019081526020015f2087815481106101305761012f6112ac565b5b905f5260205f2090600502016040518060a00160405290815f8201805461015690611306565b80601f016020809104026020016040519081016040528092919081815260200182805461018290611306565b80156101cd5780601f106101a4576101008083540402835291602001916101cd565b820191905f5260205f20905b8154815290600101906020018083116101b057829003601f168201915b505050505081526020016001820180546101e690611306565b80601f016020809104026020016040519081016040528092919081815260200182805461021290611306565b801561025d5780601f106102345761010080835404028352916020019161025d565b820191905f5260205f20905b81548152906001019060200180831161024057829003601f168201915b5050505050815260200160028201805480602002602001604051908101604052809291908181526020015f905b82821015610332578382905f5260205f200180546102a790611306565b80601f01602080910402602001604051908101604052809291908181526020018280546102d390611306565b801561031e5780601f106102f55761010080835404028352916020019161031e565b820191905f5260205f20905b81548152906001019060200180831161030157829003601f168201915b50505050508152602001906001019061028a565b5050505081526020016003820180548060200260200160405190810160405280929190818152602001828054801561038757602002820191905f5260205f20905b815481526020019060010190808311610373575b505050505081526020016004820154815250509050805f01518160200151826040015183606001518460800151955095509550955095505091939590929450565b5f805f3373ffffffffffffffffffffffffffffffffffffffff1673ffffffffffffffffffffffffffffffffffffffff1681526020019081526020015f2080549050905090565b8151835114610452576040517f08c379a000000000000000000000000000000000000000000000000000000000815260040161044990611380565b60405180910390fd5b5f6040518060a001604052808781526020018681526020018581526020018481526020018381525090505f803373ffffffffffffffffffffffffffffffffffffffff1673ffffffffffffffffffffffffffffffffffffffff1681526020019081526020015f2081908060018154018082558091505060019003905f5260205f2090600502015f909190919091505f820151815f0190816104f2919061153b565b506020820151816001019081610508919061153b565b506040820151816002019080519060200190610525929190610840565b506060820151816003019080519060200190610542929190610897565b50608082015181600401555050505050505050565b60605f803373ffffffffffffffffffffffffffffffffffffffff1673ffffffffffffffffffffffffffffffffffffffff1681526020019081526020015f20805480602002602001604051908101604052809291908181526020015f905b82821015610837578382905f5260205f2090600502016040518060a00160405290815f820180546105e490611306565b80601f016020809104026020016040519081016040528092919081815260200182805461061090611306565b801561065b5780601f106106325761010080835404028352916020019161065b565b820191905f5260205f20905b81548152906001019060200180831161063e57829003601f168201915b5050505050815260200160018201805461067490611306565b80601f01602080910402602001604051908101604052809291908181526020018280546106a090611306565b80156106eb5780601f106106c2576101008083540402835291602001916106eb565b820191905f5260205f20905b8154815290600101906020018083116106ce57829003601f168201915b5050505050815260200160028201805480602002602001604051908101604052809291908181526020015f905b828210156107c0578382905f5260205f2001805461073590611306565b80601f016020809104026020016040519081016040528092919081815260200182805461076190611306565b80156107ac5780601f10610783576101008083540402835291602001916107ac565b820191905f5260205f20905b81548152906001019060200180831161078f57829003601f168201915b505050505081526020019060010190610718565b5050505081526020016003820180548060200260200160405190810160405280929190818152602001828054801561081557602002820191905f5260205f20905b815481526020019060010190808311610801575b50505050508152602001600482015481525050815260200190600101906105b4565b50505050905090565b828054828255905f5260205f20908101928215610886579160200282015b82811115610885578251829081610875919061153b565b509160200191906001019061085e565b5b50905061089391906108e2565b5090565b828054828255905f5260205f209081019282156108d1579160200282015b828111156108d05782518255916020019190600101906108b5565b5b5090506108de9190610905565b5090565b5b80821115610901575f81816108f89190610920565b506001016108e3565b5090565b5b8082111561091c575f815f905550600101610906565b5090565b50805461092c90611306565b5f825580601f1061093d575061095a565b601f0160209004905f5260205f20908101906109599190610905565b5b50565b5f604051905090565b5f80fd5b5f80fd5b5f819050919050565b6109808161096e565b811461098a575f80fd5b50565b5f8135905061099b81610977565b92915050565b5f602082840312156109b6576109b5610966565b5b5f6109c38482850161098d565b91505092915050565b5f81519050919050565b5f82825260208201905092915050565b5f5b83811015610a035780820151818401526020810190506109e8565b5f8484015250505050565b5f601f19601f8301169050919050565b5f610a28826109cc565b610a3281856109d6565b9350610a428185602086016109e6565b610a4b81610a0e565b840191505092915050565b5f81519050919050565b5f82825260208201905092915050565b5f819050602082019050919050565b5f82825260208201905092915050565b5f610a99826109cc565b610aa38185610a7f565b9350610ab38185602086016109e6565b610abc81610a0e565b840191505092915050565b5f610ad28383610a8f565b905092915050565b5f602082019050919050565b5f610af082610a56565b610afa8185610a60565b935083602082028501610b0c85610a70565b805f5b85811015610b475784840389528151610b288582610ac7565b9450610b3383610ada565b925060208a01995050600181019050610b0f565b50829750879550505050505092915050565b5f81519050919050565b5f82825260208201905092915050565b5f819050602082019050919050565b610b8b8161096e565b82525050565b5f610b9c8383610b82565b60208301905092915050565b5f602082019050919050565b5f610bbe82610b59565b610bc88185610b63565b9350610bd383610b73565b805f5b83811015610c03578151610bea8882610b91565b9750610bf583610ba8565b925050600181019050610bd6565b5085935050505092915050565b610c198161096e565b82525050565b5f60a0820190508181035f830152610c378188610a1e565b90508181036020830152610c4b8187610a1e565b90508181036040830152610c5f8186610ae6565b90508181036060830152610c738185610bb4565b9050610c826080830184610c10565b9695505050505050565b5f602082019050610c9f5f830184610c10565b92915050565b5f80fd5b5f80fd5b7f4e487b71000000000000000000000000000000000000000000000000000000005f52604160045260245ffd5b610ce382610a0e565b810181811067ffffffffffffffff82111715610d0257610d01610cad565b5b80604052505050565b5f610d1461095d565b9050610d208282610cda565b919050565b5f67ffffffffffffffff821115610d3f57610d3e610cad565b5b610d4882610a0e565b9050602081019050919050565b828183375f83830152505050565b5f610d75610d7084610d25565b610d0b565b905082815260208101848484011115610d9157610d90610ca9565b5b610d9c848285610d55565b509392505050565b5f82601f830112610db857610db7610ca5565b5b8135610dc8848260208601610d63565b91505092915050565b5f67ffffffffffffffff821115610deb57610dea610cad565b5b602082029050602081019050919050565b5f80fd5b5f610e12610e0d84610dd1565b610d0b565b90508083825260208201905060208402830185811115610e3557610e34610dfc565b5b835b81811015610e7c57803567ffffffffffffffff811115610e5a57610e59610ca5565b5b808601610e678982610da4565b85526020850194505050602081019050610e37565b5050509392505050565b5f82601f830112610e9a57610e99610ca5565b5b8135610eaa848260208601610e00565b91505092915050565b5f67ffffffffffffffff821115610ecd57610ecc610cad565b5b602082029050602081019050919050565b5f610ef0610eeb84610eb3565b610d0b565b90508083825260208201905060208402830185811115610f1357610f12610dfc565b5b835b81811015610f3c5780610f28888261098d565b845260208401935050602081019050610f15565b5050509392505050565b5f82601f830112610f5a57610f59610ca5565b5b8135610f6a848260208601610ede565b91505092915050565b5f805f805f60a08688031215610f8c57610f8b610966565b5b5f86013567ffffffffffffffff811115610fa957610fa861096a565b5b610fb588828901610da4565b955050602086013567ffffffffffffffff811115610fd657610fd561096a565b5b610fe288828901610da4565b945050604086013567ffffffffffffffff8111156110035761100261096a565b5b61100f88828901610e86565b935050606086013567ffffffffffffffff8111156110305761102f61096a565b5b61103c88828901610f46565b925050608061104d8882890161098d565b9150509295509295909350565b5f81519050919050565b5f82825260208201905092915050565b5f819050602082019050919050565b5f82825260208201905092915050565b5f61109d82610a56565b6110a78185611083565b9350836020820285016110b985610a70565b805f5b858110156110f457848403895281516110d58582610ac7565b94506110e083610ada565b925060208a019950506001810190506110bc565b50829750879550505050505092915050565b5f82825260208201905092915050565b5f61112082610b59565b61112a8185611106565b935061113583610b73565b805f5b8381101561116557815161114c8882610b91565b975061115783610ba8565b925050600181019050611138565b5085935050505092915050565b5f60a083015f8301518482035f86015261118c8282610a8f565b915050602083015184820360208601526111a68282610a8f565b915050604083015184820360408601526111c08282611093565b915050606083015184820360608601526111da8282611116565b91505060808301516111ef6080860182610b82565b508091505092915050565b5f6112058383611172565b905092915050565b5f602082019050919050565b5f6112238261105a565b61122d8185611064565b93508360208202850161123f85611074565b805f5b8581101561127a578484038952815161125b85826111fa565b94506112668361120d565b925060208a01995050600181019050611242565b50829750879550505050505092915050565b5f6020820190508181035f8301526112a48184611219565b905092915050565b7f4e487b71000000000000000000000000000000000000000000000000000000005f52603260045260245ffd5b7f4e487b71000000000000000000000000000000000000000000000000000000005f52602260045260245ffd5b5f600282049050600182168061131d57607f821691505b6020821081036113305761132f6112d9565b5b50919050565b7f54616d616e686f73206469666572656e746573000000000000000000000000005f82015250565b5f61136a6013836109d6565b915061137582611336565b602082019050919050565b5f6020820190508181035f8301526113978161135e565b9050919050565b5f819050815f5260205f209050919050565b5f6020601f8301049050919050565b5f82821b905092915050565b5f600883026113fa7fffffffffffffffffffffffffffffffffffffffffffffffffffffffffffffffff826113bf565b61140486836113bf565b95508019841693508086168417925050509392505050565b5f819050919050565b5f61143f61143a6114358461096e565b61141c565b61096e565b9050919050565b5f819050919050565b61145883611425565b61146c61146482611446565b8484546113cb565b825550505050565b5f90565b611480611474565b61148b81848461144f565b505050565b5b818110156114ae576114a35f82611478565b600181019050611491565b5050565b601f8211156114f3576114c48161139e565b6114cd846113b0565b810160208510156114dc578190505b6114f06114e8856113b0565b830182611490565b50505b505050565b5f82821c905092915050565b5f6115135f19846008026114f8565b1980831691505092915050565b5f61152b8383611504565b9150826002028217905092915050565b611544826109cc565b67ffffffffffffffff81111561155d5761155c610cad565b5b6115678254611306565b6115728282856114b2565b5f60209050601f8311600181146115a3575f8415611591578287015190505b61159b8582611520565b865550611602565b601f1984166115b18661139e565b5f5b828110156115d8578489015182556001820191506020850194506020810190506115b3565b868310156115f557848901516115f1601f891682611504565b8355505b6001600288020188555050505b50505050505056fea26469706673582212203249cd00b980f55c6b653a61f9c7d713653c88d017279029fa2e7273c207698964736f6c63430008150033",
  "immutableReferences": {},
  "source": "// SPDX-License-Identifier: MIT \r\npragma solidity >= 0.8.15;\r\n\r\ncontract LeafDataStorage {\r\n    struct LeafData {\r\n        string plantId;\r\n        string ipfsLink;\r\n        string[] classNames;\r\n        uint256[] classDistributions;\r\n        uint date;\r\n    }\r\n\r\n    // Mapeando os endereos dos usurios para seus respectivos dados submetidos\r\n    mapping(address => LeafData[]) private userLeafData;\r\n\r\n    // Definindo os atributos de userLeafData\r\n    function setUserLeafData(string memory _plantId, string memory _ipfsLink, string[] memory _classNames, \r\n                            uint256[] memory _distributions, uint _date) public {        \r\n        require(_classNames.length == _distributions.length, \"Tamanhos diferentes\");\r\n\r\n        LeafData memory newLeafData = LeafData({\r\n            plantId: _plantId,\r\n            ipfsLink: _ipfsLink,\r\n            classNames: _classNames, \r\n            classDistributions: _distributions,\r\n            date: _date\r\n        });\r\n\r\n        userLeafData[msg.sender].push(newLeafData);\r\n    }\r\n\r\n    // Retornando os dados salvos pelos respectivos usurios\r\n    function getUserLeafDataFull() public view returns (LeafData[] memory) {\r\n        return userLeafData[msg.sender];\r\n    }\r\n\r\n    function getUserLeafDataAttributes(uint _index) public view returns(string memory, string memory, \r\n                                                                        string[] memory, uint256[] memory, \r\n                                                                        uint) {\r\n        LeafData memory _userLeafData = userLeafData[msg.sender][_index];\r\n        return (_userLeafData.plantId, \r\n                _userLeafData.ipfsLink, \r\n                _userLeafData.classNames,\r\n                _userLeafData.classDistributions, \r\n                _userLeafData.date\r\n        );\r\n    }\r\n\r\n    // Retornando a quantidade total de submisses feita por um usurio\r\n    function getLengthUserLeafData() public view returns(uint) {\r\n        return userLeafData[msg.sender].length;\r\n    }\r\n}\r\n",
  "sourcePath": "D:\\GitHub\\coffee-break-chain\\contracts\\LeafDataStorage.sol",
  "compiler": {
    "name": "solc",
    "version": "0.8.21+commit.d9974bed.Emscripten.clang"
  },
  "schemaVersion": "3.4.16",
  "updatedAt": "2023-09-10T19:35:21.413Z",
  "networkType": "ethereum",
  "devdoc": {
    "kind": "dev",
    "methods": {},
    "version": 1
  },
  "userdoc": {
    "kind": "user",
    "methods": {},
    "version": 1
  }
}