{
  "contractName": "LeafDataStorage",
  "abi": [
    {
      "inputs": [
        {
          "internalType": "uint256",
          "name": "_index",
          "type": "uint256"
        }
      ],
      "name": "getUserLeafData",
      "outputs": [
        {
          "internalType": "string",
          "name": "",
          "type": "string"
        },
        {
          "internalType": "string",
          "name": "",
          "type": "string"
        },
        {
          "components": [
            {
              "internalType": "string",
              "name": "className",
              "type": "string"
            },
            {
              "internalType": "uint256",
              "name": "distribution",
              "type": "uint256"
            }
          ],
          "internalType": "struct LeafDataStorage.ClassDistribution[]",
          "name": "",
          "type": "tuple[]"
        },
        {
          "internalType": "uint256",
          "name": "",
          "type": "uint256"
        }
      ],
      "stateMutability": "view",
      "type": "function",
      "constant": true
    },
    {
      "inputs": [],
      "name": "getLengthUserLeafData",
      "outputs": [
        {
          "internalType": "uint256",
          "name": "",
          "type": "uint256"
        }
      ],
      "stateMutability": "view",
      "type": "function",
      "constant": true
    }
  ],
  "bytecode": "0x608060405234801561000f575f80fd5b506106f68061001d5f395ff3fe608060405234801561000f575f80fd5b5060043610610034575f3560e01c806338a5fff214610038578063b5fce14c14610056575b5f80fd5b610040610089565b60405161004d9190610396565b60405180910390f35b610070600480360381019061006b91906103dd565b6100cf565b60405161008094939291906105de565b60405180910390f35b5f805f3373ffffffffffffffffffffffffffffffffffffffff1673ffffffffffffffffffffffffffffffffffffffff1681526020019081526020015f2080549050905090565b60608060605f805f803373ffffffffffffffffffffffffffffffffffffffff1673ffffffffffffffffffffffffffffffffffffffff1681526020019081526020015f20868154811061012457610123610636565b5b905f5260205f2090600402016040518060800160405290815f8201805461014a90610690565b80601f016020809104026020016040519081016040528092919081815260200182805461017690610690565b80156101c15780601f10610198576101008083540402835291602001916101c1565b820191905f5260205f20905b8154815290600101906020018083116101a457829003601f168201915b505050505081526020016001820180546101da90610690565b80601f016020809104026020016040519081016040528092919081815260200182805461020690610690565b80156102515780601f1061022857610100808354040283529160200191610251565b820191905f5260205f20905b81548152906001019060200180831161023457829003601f168201915b5050505050815260200160028201805480602002602001604051908101604052809291908181526020015f905b82821015610347578382905f5260205f2090600202016040518060400160405290815f820180546102ae90610690565b80601f01602080910402602001604051908101604052809291908181526020018280546102da90610690565b80156103255780601f106102fc57610100808354040283529160200191610325565b820191905f5260205f20905b81548152906001019060200180831161030857829003601f168201915b505050505081526020016001820154815250508152602001906001019061027e565b5050505081526020016003820154815250509050805f01518160200151826040015183606001519450945094509450509193509193565b5f819050919050565b6103908161037e565b82525050565b5f6020820190506103a95f830184610387565b92915050565b5f80fd5b6103bc8161037e565b81146103c6575f80fd5b50565b5f813590506103d7816103b3565b92915050565b5f602082840312156103f2576103f16103af565b5b5f6103ff848285016103c9565b91505092915050565b5f81519050919050565b5f82825260208201905092915050565b5f5b8381101561043f578082015181840152602081019050610424565b5f8484015250505050565b5f601f19601f8301169050919050565b5f61046482610408565b61046e8185610412565b935061047e818560208601610422565b6104878161044a565b840191505092915050565b5f81519050919050565b5f82825260208201905092915050565b5f819050602082019050919050565b5f82825260208201905092915050565b5f6104d582610408565b6104df81856104bb565b93506104ef818560208601610422565b6104f88161044a565b840191505092915050565b61050c8161037e565b82525050565b5f604083015f8301518482035f86015261052c82826104cb565b91505060208301516105416020860182610503565b508091505092915050565b5f6105578383610512565b905092915050565b5f602082019050919050565b5f61057582610492565b61057f818561049c565b935083602082028501610591856104ac565b805f5b858110156105cc57848403895281516105ad858261054c565b94506105b88361055f565b925060208a01995050600181019050610594565b50829750879550505050505092915050565b5f6080820190508181035f8301526105f6818761045a565b9050818103602083015261060a818661045a565b9050818103604083015261061e818561056b565b905061062d6060830184610387565b95945050505050565b7f4e487b71000000000000000000000000000000000000000000000000000000005f52603260045260245ffd5b7f4e487b71000000000000000000000000000000000000000000000000000000005f52602260045260245ffd5b5f60028204905060018216806106a757607f821691505b6020821081036106ba576106b9610663565b5b5091905056fea2646970667358221220b347aa6c73563560a6eee25968b6bcd2076889a24cb790b6513ddededf2aaa2964736f6c63430008150033",
  "immutableReferences": {},
  "source": "// SPDX-License-Identifier: MIT \r\npragma solidity >= 0.8.15;\r\n\r\ncontract LeafDataStorage {\r\n    struct ClassDistribution {\r\n        string className;\r\n        uint256 distribution;\r\n    }\r\n\r\n    struct LeafData {\r\n        string plantId;\r\n        string ipfsLink;\r\n        ClassDistribution[] classDistributions;\r\n        uint date;\r\n    }\r\n\r\n    // Mapeando os endereos dos usurios para seus respectivos dados submetidos\r\n    mapping(address => LeafData[]) private userLeafData;\r\n\r\n    // Definindo os atributos de userLeafData\r\n    function _setUserLeafData(string memory _plantId, string memory _ipfsLink, \r\n                              ClassDistribution[] memory _classDistributions, uint _date) private {\r\n        userLeafData[msg.sender].push(LeafData({\r\n            plantId: _plantId,\r\n            ipfsLink: _ipfsLink,\r\n            classDistributions: _classDistributions,\r\n            date: _date\r\n        }));\r\n    }\r\n\r\n    // Retornando os dados salvos pelos respectivos usurios\r\n    function getUserLeafData(uint _index) public view returns(string memory, string memory, \r\n                                                              ClassDistribution[] memory, uint) {\r\n        LeafData memory _userLeafData = userLeafData[msg.sender][_index];\r\n        return (_userLeafData.plantId, _userLeafData.ipfsLink, \r\n                _userLeafData.classDistributions, _userLeafData.date);\r\n    }\r\n\r\n    // Retornando a quantidade total de submisses feita por um usurio\r\n    function getLengthUserLeafData() public view returns(uint) {\r\n        return userLeafData[msg.sender].length;\r\n    }\r\n}\r\n",
  "sourcePath": "D:\\GitHub\\coffee-break-chain\\contracts\\LeafDataStorage.sol",
  "compiler": {
    "name": "solc",
    "version": "0.8.21+commit.d9974bed.Emscripten.clang"
  },
  "schemaVersion": "3.4.16",
  "updatedAt": "2023-09-09T19:10:34.666Z",
  "networkType": "ethereum",
  "devdoc": {
    "kind": "dev",
    "methods": {},
    "version": 1
  },
  "userdoc": {
    "kind": "user",
    "methods": {},
    "version": 1
  }
}