{
  "contractName": "LeafDataStorage",
  "abi": [
    {
      "inputs": [
        {
          "internalType": "string",
          "name": "_plantId",
          "type": "string"
        },
        {
          "internalType": "string",
          "name": "_ipfsLink",
          "type": "string"
        },
        {
          "internalType": "string",
          "name": "_classificationData",
          "type": "string"
        },
        {
          "internalType": "uint256",
          "name": "_date",
          "type": "uint256"
        }
      ],
      "name": "setUserLeafData",
      "outputs": [],
      "stateMutability": "nonpayable",
      "type": "function"
    },
    {
      "inputs": [],
      "name": "getUserLeafDataFull",
      "outputs": [
        {
          "components": [
            {
              "internalType": "string",
              "name": "plantId",
              "type": "string"
            },
            {
              "internalType": "string",
              "name": "ipfsLink",
              "type": "string"
            },
            {
              "internalType": "string",
              "name": "classificationData",
              "type": "string"
            },
            {
              "internalType": "uint256",
              "name": "date",
              "type": "uint256"
            }
          ],
          "internalType": "struct LeafDataStorage.LeafData[]",
          "name": "",
          "type": "tuple[]"
        }
      ],
      "stateMutability": "view",
      "type": "function",
      "constant": true
    }
  ],
  "bytecode": "0x608060405234801561000f575f80fd5b50610aa48061001d5f395ff3fe608060405234801561000f575f80fd5b5060043610610034575f3560e01c80632b01c9ff146100385780638ecd432414610054575b5f80fd5b610052600480360381019061004d919061051b565b610072565b005b61005c61014c565b6040516100699190610785565b60405180910390f35b5f60405180608001604052808681526020018581526020018481526020018381525090505f803373ffffffffffffffffffffffffffffffffffffffff1673ffffffffffffffffffffffffffffffffffffffff1681526020019081526020015f2081908060018154018082558091505060019003905f5260205f2090600402015f909190919091505f820151815f01908161010c919061099f565b506020820151816001019081610122919061099f565b506040820151816002019081610138919061099f565b506060820151816003015550505050505050565b60605f803373ffffffffffffffffffffffffffffffffffffffff1673ffffffffffffffffffffffffffffffffffffffff1681526020019081526020015f20805480602002602001604051908101604052809291908181526020015f905b82821015610392578382905f5260205f2090600402016040518060800160405290815f820180546101d9906107d2565b80601f0160208091040260200160405190810160405280929190818152602001828054610205906107d2565b80156102505780601f1061022757610100808354040283529160200191610250565b820191905f5260205f20905b81548152906001019060200180831161023357829003601f168201915b50505050508152602001600182018054610269906107d2565b80601f0160208091040260200160405190810160405280929190818152602001828054610295906107d2565b80156102e05780601f106102b7576101008083540402835291602001916102e0565b820191905f5260205f20905b8154815290600101906020018083116102c357829003601f168201915b505050505081526020016002820180546102f9906107d2565b80601f0160208091040260200160405190810160405280929190818152602001828054610325906107d2565b80156103705780601f1061034757610100808354040283529160200191610370565b820191905f5260205f20905b81548152906001019060200180831161035357829003601f168201915b50505050508152602001600382015481525050815260200190600101906101a9565b50505050905090565b5f604051905090565b5f80fd5b5f80fd5b5f80fd5b5f80fd5b5f601f19601f8301169050919050565b7f4e487b71000000000000000000000000000000000000000000000000000000005f52604160045260245ffd5b6103fa826103b4565b810181811067ffffffffffffffff82111715610419576104186103c4565b5b80604052505050565b5f61042b61039b565b905061043782826103f1565b919050565b5f67ffffffffffffffff821115610456576104556103c4565b5b61045f826103b4565b9050602081019050919050565b828183375f83830152505050565b5f61048c6104878461043c565b610422565b9050828152602081018484840111156104a8576104a76103b0565b5b6104b384828561046c565b509392505050565b5f82601f8301126104cf576104ce6103ac565b5b81356104df84826020860161047a565b91505092915050565b5f819050919050565b6104fa816104e8565b8114610504575f80fd5b50565b5f81359050610515816104f1565b92915050565b5f805f8060808587031215610533576105326103a4565b5b5f85013567ffffffffffffffff8111156105505761054f6103a8565b5b61055c878288016104bb565b945050602085013567ffffffffffffffff81111561057d5761057c6103a8565b5b610589878288016104bb565b935050604085013567ffffffffffffffff8111156105aa576105a96103a8565b5b6105b6878288016104bb565b92505060606105c787828801610507565b91505092959194509250565b5f81519050919050565b5f82825260208201905092915050565b5f819050602082019050919050565b5f81519050919050565b5f82825260208201905092915050565b5f5b83811015610633578082015181840152602081019050610618565b5f8484015250505050565b5f610648826105fc565b6106528185610606565b9350610662818560208601610616565b61066b816103b4565b840191505092915050565b61067f816104e8565b82525050565b5f608083015f8301518482035f86015261069f828261063e565b915050602083015184820360208601526106b9828261063e565b915050604083015184820360408601526106d3828261063e565b91505060608301516106e86060860182610676565b508091505092915050565b5f6106fe8383610685565b905092915050565b5f602082019050919050565b5f61071c826105d3565b61072681856105dd565b935083602082028501610738856105ed565b805f5b85811015610773578484038952815161075485826106f3565b945061075f83610706565b925060208a0199505060018101905061073b565b50829750879550505050505092915050565b5f6020820190508181035f83015261079d8184610712565b905092915050565b7f4e487b71000000000000000000000000000000000000000000000000000000005f52602260045260245ffd5b5f60028204905060018216806107e957607f821691505b6020821081036107fc576107fb6107a5565b5b50919050565b5f819050815f5260205f209050919050565b5f6020601f8301049050919050565b5f82821b905092915050565b5f6008830261085e7fffffffffffffffffffffffffffffffffffffffffffffffffffffffffffffffff82610823565b6108688683610823565b95508019841693508086168417925050509392505050565b5f819050919050565b5f6108a361089e610899846104e8565b610880565b6104e8565b9050919050565b5f819050919050565b6108bc83610889565b6108d06108c8826108aa565b84845461082f565b825550505050565b5f90565b6108e46108d8565b6108ef8184846108b3565b505050565b5b81811015610912576109075f826108dc565b6001810190506108f5565b5050565b601f8211156109575761092881610802565b61093184610814565b81016020851015610940578190505b61095461094c85610814565b8301826108f4565b50505b505050565b5f82821c905092915050565b5f6109775f198460080261095c565b1980831691505092915050565b5f61098f8383610968565b9150826002028217905092915050565b6109a8826105fc565b67ffffffffffffffff8111156109c1576109c06103c4565b5b6109cb82546107d2565b6109d6828285610916565b5f60209050601f831160018114610a07575f84156109f5578287015190505b6109ff8582610984565b865550610a66565b601f198416610a1586610802565b5f5b82811015610a3c57848901518255600182019150602085019450602081019050610a17565b86831015610a595784890151610a55601f891682610968565b8355505b6001600288020188555050505b50505050505056fea2646970667358221220ad57efa9a3ef484cf910d3c15604702e0f7580e19efd18f6c1c94c097e35445464736f6c63430008150033",
  "immutableReferences": {},
  "source": "// SPDX-License-Identifier: MIT \r\npragma solidity >= 0.8.15;\r\n\r\ncontract LeafDataStorage {\r\n    struct LeafData {\r\n        string plantId;\r\n        string ipfsLink;\r\n        string classificationData;\r\n        uint date;\r\n    }\r\n\r\n    // Mapeando os endereos dos usurios para seus respectivos dados submetidos\r\n    mapping(address => LeafData[]) private userLeafData;\r\n\r\n    // Definindo os atributos de userLeafData\r\n    function setUserLeafData(string memory _plantId, string memory _ipfsLink, \r\n                             string memory _classificationData, uint _date) public {        \r\n        LeafData memory newLeafData = LeafData({\r\n            plantId: _plantId,\r\n            ipfsLink: _ipfsLink,\r\n            classificationData: _classificationData,\r\n            date: _date\r\n        });\r\n\r\n        userLeafData[msg.sender].push(newLeafData);\r\n    }\r\n\r\n    // Retornando os dados salvos pelos respectivos usurios\r\n    function getUserLeafDataFull() public view returns (LeafData[] memory) {\r\n        return userLeafData[msg.sender];\r\n    }\r\n}",
  "sourcePath": "C:\\Users\\ArkadeUser\\Documents\\projects\\coffee-break-blockchain\\contracts\\LeafDataStorage.sol",
  "compiler": {
    "name": "solc",
    "version": "0.8.21+commit.d9974bed.Emscripten.clang"
  },
  "schemaVersion": "3.4.16",
  "updatedAt": "2023-09-11T17:40:37.889Z",
  "networkType": "ethereum",
  "devdoc": {
    "kind": "dev",
    "methods": {},
    "version": 1
  },
  "userdoc": {
    "kind": "user",
    "methods": {},
    "version": 1
  }
}